:020000040800F2
:10000000F00A0024E1020008A361000885550008F9
:10001000A161000867080008A57C00080000000036
:10002000000000000000000000000000A7660008BB
:10003000010D000800000000A5610008A966000885
:10004000FB020008FB020008FB020008FB0200089C
:10005000FB020008FB020008FB020008FB0200088C
:10006000FB020008FB020008FB0200086908000808
:1000700075080008810800088D0800089908000824
:10008000A5080008B1080008FB020008FB020008F0
:10009000FB020008FB020008FB020008FB0200084C
:1000A000FB020008FB020008FB020008FB0200083C
:1000B00005680008FB020008FB020008FB020008BC
:1000C000FB020008FB020008FB020008FB0200081C
:1000D000FB020008657B0008317C00083D7C0008BD
:1000E000FB020008FB02000800000000FB02000801
:1000F000FB020008FB020008FB020008BD08000824
:10010000FB020008FB020008FB020008FB020008DB
:10011000D96C0008FB020008FB020008FB02000883
:10012000FB020008FB020008FB020008FB020008BB
:10013000FB020008FB020008FB020008FB020008AB
:1001400000000000000000000000000000000000AF
:10015000FB020008FB020008FB020008FB0200088B
:10016000FB020008FB020008FB020008FB0200087B
:10017000FB020008FB020008FB0200080000000070
:10018000FB020008FB020008FB020008FB0200085B
:10019000FB020008FB020008FB020008FB0200084B
:1001A000FB020008FB020008FB0200080000000040
:1001B000FB020008FB020008FB020008FB0200082B
:1001C000FB020008FB020008000000000000000025
:1001D0000000000000000000FB020008000000001A
:1001E000000000000000000000000000000000000F
:1001F0000000000000000000FB020008FB020008F5
:10020000FB020008FB02000800000000FB020008DF
:10021000FB020008FB020008FB020008FB020008CA
:10022000FB02000800000000FB02000800000000C4
:10023000FB020008FB02000800000000FB020008AF
:10024000FB020008FB020008FB020008FB0200089A
:10025000FB020008FB020008FB020008FB0200088A
:10026000FB020008FB020008FB020008FB0200087A
:10027000FB020008FB020008FB020008000000006F
:10028000FB020008FB020008FB020008FB0200085A
:1002900000000000FB020008FB0200080000000054
:1002A00000000000FB020008FB020008FB0200083F
:1002B000FB020008FB020008FB020008FB0200082A
:1002C000FB020008FB020008FB020008DFF80CD06C
:1002D00000F048FA00480047BD850008F00A0024F5
:1002E0000648804706480047FEE7FEE7FEE7FEE7D0
:1002F000FEE7FEE7FEE7FEE7FEE7FEE745670008EC
:10030000CD0200082DE9F05F0546002092469B468D
:1003100088460646814640241BE02846414647461B
:10032000224600F057F853465A46C01A914110D35E
:1003300011461846224600F03EF82D1A67EB0108D8
:100340004F4622460120002100F035F817EB000946
:100350004E41201EA4F10104DFDC484631462A4606
:100360004346BDE8F09FD2B201E000F8012B491EE0
:10037000FBD270470022F6E710B513460A46044642
:100380001946FFF7F0FF204610BD30B50B46014679
:1003900000202022012409E021FA02F59D4205D324
:1003A00003FA02F5491B04FA02F52844151EA2F1CE
:1003B0000102F1DC30BD202A04DB203A00FA02F110
:1003C000002070479140C2F1200320FA03F3194343
:1003D00090407047202A04DB203A21FA02F00021E5
:1003E000704721FA02F3D040C2F120029140084345
:1003F000194670472DE9FE4F804681EA0300C00F81
:100400000C46009021F0004123F00045B8EB0200BB
:10041000A94105D24046214690461C460B4602465D
:1004200023F00040104347D0270DC7F30A00C3F361
:100430000A510290401A019040286BDAC3F313006E
:1004400040F4801B0098924620B10023D2EB030AAF
:1004500063EB0B0B01985946C0F140025046FFF781
:10046000AAFF06460D4650465946019A00F08CF9FF
:1004700010EB08006141002487EA115284EAE77317
:100480001A4340D0009A62B3019A012A4FEA0752F8
:1004900015DC001B61EB02014FF0004202EA07523B
:1004A000CDE90042001C41F5801132462B4600F098
:1004B0008CF903B0BDE8F08F40462146F9E7001BF8
:1004C00061EB0201001C41F5801300185B4120180C
:1004D000A2F5001747EB030140EAD570B6196D414C
:1004E00011E06D084FEA360645EAC0754FEA07523B
:1004F000001B61EB0201001C41F5801149084FEA25
:1005000030000019514132462B4603B0BDE8F04F90
:1005100000F04CB90098012240000023D0EB020209
:1005200063EBE073009821464FEAE074B8EB0000FB
:1005300061EB0401E9E783F000435BE781F00041F0
:1005400058E72DE9FE4F81EA030404F0004421F04E
:10055000004100944FF0000B23F0004350EA0104E7
:100560005ED052EA03045BD0C3F30A54C1F30A55C8
:100570002C44A4F2F3340194A0FB0254C1F3130100
:1005800041F48011C3F3130343F4801301FB0244CD
:1005900000FB034E840A970A44EA815447EA8357D2
:1005A000A4FB076802958D0A05FB07854FEA932C8B
:1005B00004FB0C542705029D4FEA065847EA1637FC
:1005C000B5EB08056EEB070C870E920E47EA811714
:1005D00042EA8312A7FB0201B6EB0B0164EB0004B5
:1005E0002B0D43EA0C335E1844EB1C50DA4651469F
:1005F000E7FB0201C5F313044FEA0B3343EA14533C
:100600004FEA0432019C43EA0603A4F10C0402946D
:10061000009CCDE900B400F0D8F803B0BDE8F08F3D
:1006200000200146F9E72DE9F04D81EA030404F0CA
:10063000004B21F0004514464FF0000A23F0004122
:1006400050EA050220D054EA01021DD0C5F30A5732
:100650000246C5F31303C1F31300C1F30A5640F475
:10066000801543F48013A7EB0608101BD64608F24A
:10067000FD3873EB050002D308F1010801E0921880
:100680005B41B8F1000F03DA00200146BDE8F08DB0
:1006900000204FF48011064684460EE0171B73EBD2
:1006A000050705D3121B63EB050306434CEA010C57
:1006B00049084FEA300092185B4150EA0107EDD13A
:1006C00052EA030012D082EA040083EA05010843DB
:1006D00005D0101BAB4106D20122002306E0002208
:1006E0004FF0004302E06FF0010253101AEB0600D6
:1006F0004CEB085110EB0A0041EB0B01BDE8F04D4B
:1007000000F054B8C1F30A52C1F3130140F2FF33B1
:1007100041F480119A4202DA00200146704740F20B
:1007200033439A42A2F2334202DC5242FFF752BEF6
:10073000FFF741BE30B5041E71F1000404DB4FF039
:100740000044404264EB0101141E73F1000405DB18
:100750001C464FF00043524263EB0403994208BF2A
:10076000904230BD064C074D06E0E06840F00103C2
:1007700094E8070098471034AC42F6D3FFF7AAFD7F
:100780006C980008AC980008202A06DBCB17203AAA
:1007900041FA02F043EAE07306E041FA02F3D04086
:1007A000C2F12002914008431946704710B5141E4B
:1007B00073F1000408DA401C41F1000192185B411A
:1007C0001A4301D120F0010010BD2DE9F04D9246F1
:1007D0009B4611B1B1FA81F202E0B0FA80F2203208
:1007E0009046FFF7E8FD04460F4640EA0A0041EA5A
:1007F0000B0153465A46084313D0114653EA0100F1
:1008000019D0C8F140025046FFF7E4FD05460E46F8
:10081000504659464246FFF7CEFD084305D0012019
:1008200004E020463946BDE8F08D0020054346EA45
:10083000E0762C4337430A986305E40AA0EB0800EE
:100840000022FD0A44EA47540A3002D5002001463E
:10085000E9E7010510196941DDE908450019694119
:10086000BDE8F04DA2E7FEE7014800F041BD000001
:100870001C040024014800F03BBD00009404002447
:10088000014800F035BD00002C030024014800F0B1
:100890002FBD0000A4030024014800F029BD000082
:1008A0000C050024014800F023BD0000840500244D
:1008B000014800F01DBD0000FC050024014800F0C7
:1008C00017BD000074060024294A016891423AD0FD
:1008D000274A1832914236D0254A3032914232D0DE
:1008E000234A483291422ED0214A603291422AD086
:1008F0001F4A7832914226D01D4A9032914222D02E
:100900001B4AA83291421ED01A4A91421BD0194A62
:100910001832914217D0174A3032914213D0154AFB
:10092000483291420FD0134A603291420BD0114AA3
:100930007832914207D00F4A9032914203D00D4A4B
:10094000A832914211D1CAB21823103AB2FBF3F285
:100950006FF30901032A02F00703074AD25CC2655C
:1009600000D9091D81650846704721F0FF01F9E7AC
:1009700010000240100402405A86000830B5224A96
:10098000012301689142CAB21BD01F4C1434A1420A
:1009900017D01D4C2834A14213D01B4C3C34A1422B
:1009A0000FD0194C5034A1420BD0174C6434A142E3
:1009B00007D0154C7834A14203D0134C8C34A1429B
:1009C0000CD11421114C083AB2FBF1F10F4A8032DC
:1009D00001F01F0504EB8101AB4010E00C4D182421
:1009E000103A0D44B2FBF4F1A82D00D80831094AA1
:1009F00001F01F0402EB8101064AA34080326030FF
:100A000080E80E0030BD000008540258005802581B
:100A1000F0FBFDBF0008024010B50279531E072B02
:100A20002DD8174C0168A1421BD0154C1434A1429B
:100A300017D0134C2834A14213D0114C3C34A1429E
:100A40000FD00F4C5034A1420BD00D4C6434A14256
:100A500007D00B4C7834A14203D0094C8C34A1420E
:100A600003D10849074C443102E00749064C4431A0
:100A700004EB8202C0E91B2101219940416710BDAE
:100A800008540258FC580258FC08024010B583690B
:100A90004FF0C074826A0146002053B1B3F5005F85
:100AA00015D072B1012A0CD0022A0AD0032A09D12A
:100AB00004E01AB1012A06D0022A03D1C96AC90189
:100AC00000D5012010BDC96AA142FAD010BD002A8C
:100AD000F7D0012AF2D0022AF3D0032AF3D010BDB6
:100AE0002DE9F04F804E804FDFF8FC911836DFF88B
:100AF000F8A148370468856D0AF1300ADFF8ECB1D7
:100B00004C45DFF8ECC1DFF8ECE16DD0B4426BD0BE
:100B1000544569D0BC4267D0DFF8D081A8F11808ED
:100B2000444561D05C455FD064455DD074455BD081
:100B3000DFF8C481444557D0DFF8BC8108F11808BC
:100B4000444551D0DFF8B08108F1300844454BD01E
:100B5000DFF8A48108F14808444545D0DFF89881C2
:100B600008F1600844453FD0DFF88C8108F178082F
:100B7000444539D0DFF8808108F19008444533D0EE
:100B8000DFF8748108F1A80844452DD0DFF86C81A6
:100B9000444529D0DFF8648108F11408444523D086
:100BA000DFF8588108F1280844451DD0DFF84C8152
:100BB00008F13C08444517D0DFF8408108F150089F
:100BC000444511D0DFF8348108F1640844450BD066
:100BD000DFF8288108F17808444505D0DFF81C814A
:100BE00008F18C08444509D1D0E91948C4F80480BB
:100BF000C46E1CB1D0E91C48C4F8048004684C459C
:100C00002ED0B4422CD054452AD0BC4228D0374EE6
:100C1000183EB44224D05C4522D0644520D07445AF
:100C20001ED0354EB4421BD0334E1836B44217D0C6
:100C3000314E3036B44213D02F4E4836B4420FD026
:100C40002D4E6036B4420BD02B4E7836B44207D0CE
:100C5000294E9036B44203D0274EA836B44215D15F
:100C600090F85C603F2406F01F06B440AC60046856
:100C7000256825F4802525602EE09A600068C16013
:100C8000BDE8F08F99600068C260F9E71B4EB4427E
:100C90001BD01A4E1436B44217D0184E2836B44220
:100CA00013D0164E3C36B4420FD0144E5036B442D8
:100CB0000BD0124E6436B44207D0104E7836B44290
:100CC00003D00E4E8C36B442DAD190F85C60012429
:100CD00006F01F06B4406C60046863608368402BB4
:100CE0000368CFD1C9E7000010000240880002402D
:100CF000A0000240B800024010040240085402580C
:100D0000704772B6FEE700002DE9F84F044601F087
:100D1000B5FA00903CB194F83500022806D0802145
:100D200061650020E4E00120BDE8F88FC74DC74EA3
:100D3000C649183520683036DFF81483DFF814937D
:100D40008842DFF814A3DFF814B32ED0A8422CD0C9
:100D5000B0422AD0404528D0484526D0504524D01E
:100D6000584522D0BD4A183290421ED0BC4A90420B
:100D70001BD0BB4A1832904217D0B94A3032904249
:100D800013D0B74A483290420FD0B54A60329042F1
:100D90000BD0B34A7832904207D0B14A9032904299
:100DA00003D0AF4AA832904209D1026822F01E0255
:100DB00002602068426922F08002426103E002681A
:100DC00022F00E02026027688F4238464DD0A842BA
:100DD0004BD0B04249D0404547D0484545D050451A
:100DE00043D0584541D09D4A183290423DD09C4A4C
:100DF00090423AD09A4A1832904236D0984A3032CD
:100E0000904232D0964A483290422ED0944A603274
:100E100090422AD0924A7832904226D0904A90321C
:100E2000904222D08E4AA83290421ED08D4A9042E3
:100E30001BD08C4A1432904217D08A4A28329042F2
:100E400013D0884A3C3290420FD0864A50329042AA
:100E50000BD0844A6432904207D0824A7832904262
:100E600003D0804A8C32974204D1206E026822F46B
:100E70008072026075492068884228D0A84226D036
:100E8000B04224D0404522D0484520D050451ED005
:100E900058451CD071491831884218D07049884291
:100EA00015D06F491831884211D06D4930318842D0
:100EB0000DD06B494831884209D069496031884278
:100EC00005D067497831884201D065499031016881
:100ED00021F0010101600EE001F0D0F90099401A03
:100EE000052808D9202262650321002084F83510E6
:100EF00084F8340017E73868C007EDD1534A012160
:100F0000206890422ED0A8422CD0B0422AD0404532
:100F100028D0484526D0504524D0584522D04F4BA4
:100F2000183398421ED04E4B98421BD04C4B18336E
:100F3000984217D04A4B3033984213D0484B48332D
:100F400098420FD0464B603398420BD0444B7833D5
:100F5000984207D0424B9033984203D0404BA8337D
:100F6000984208D194F85C703F23A06D07F01F07EA
:100F7000BB40836007E094F85C30A06D03F01F0372
:100F800001FA03F34360206890424DD0A8424BD051
:100F9000B04249D0404547D0484545D0504543D060
:100FA000584541D02D4A183290423DD02C4A9042AB
:100FB0003AD02B4A1832904236D0294A30329042E9
:100FC00032D0274A483290422ED0254A6032904291
:100FD0002AD0234A7832904226D0214A9032904239
:100FE00022D01F4AA83290421ED01E4A90421BD0E7
:100FF0001C4A1432904217D01A4A2832904213D019
:10100000184A3C3290420FD0164A503290420BD0D0
:10101000144A6432904207D0124A7832904203D088
:10102000104A8C3290420BD1D4E919024260E06E32
:1010300030B1026822F480720260D4E91C0242607E
:10104000002084F8351084F834006DE6100002406A
:10105000580002407000024088000240A000024098
:1010600010040240085402582DE9F05F28B190F8AE
:101070003510022904D0802141650120BDE8F09F90
:10108000904C904B0168183C18338E4ADFF83C9224
:10109000A1428D4CDFF838E28E4FDFF83CB2DFF82A
:1010A0003CA28F4D8F4E31D091422FD099422DD0FE
:1010B000A1422BD0494529D0714527D0B94225D02E
:1010C000DFF810C20CF1180C61451FD0DFF808C220
:1010D000ACF1600C614519D0DFF8FCC1ACF1480CF3
:1010E000614513D0DFF8F0C1ACF1300C61450DD093
:1010F000DFF8E4C1ACF1180C614507D0594505D0C3
:10110000514503D0A94201D0B1422CD1DFF8B4C17E
:101110004FF0040880F83580ACF1180C61451DD003
:1011200091421BD0994219D0A14217D0494515D000
:10113000714513D0B94211D06648183081420DD0A4
:1011400065486038814209D063484838814205D0FB
:1011500061483038814201D05F481838086820F073
:1011600001000860ABE0D1F800C02CF00E08DFF8F9
:1011700054C1C1F80080ACF1180C0168614527D05A
:10118000914225D0994223D0A14221D049451FD078
:1011900071451DD0B9421BD0DFF838C10CF1180CD5
:1011A000614515D0DFF830C1ACF1600C61450FD05E
:1011B000DFF824C1ACF1480C614509D0DFF818C153
:1011C000ACF1300C614503D0DFF80CC1ACF1180C68
:1011D000D1F800C02CF0010CC1F800C0DFF8E480A9
:1011E0004FF0010C0168A8F11808414546D0914222
:1011F00044D0994242D0A14240D049453ED07145A9
:101200003CD0B9423AD0334A1832914236D0324AB1
:10121000603A914232D0304A483A91422ED02E4A1A
:10122000303A91422AD02C4A183A914226D0594558
:1012300024D0514522D0A94220D0B1421ED02A4A02
:1012400091421BD0284A1432914217D0264A2832A4
:10125000914213D0244A3C3291420FD0224A50325C
:1012600091420BD0204A6432914207D01E4A783214
:10127000914203D01C4A8C32914218D1016E0A6807
:1012800022F480720A6090F85C20816D02F01F02E7
:101290000CFA02F24A60D0E919124A60C16E31B10B
:1012A0000A6822F480720A60D0E91C124A600022A7
:1012B000016D80F835C080F8342001B188470020E6
:1012C000DCE60000280002405800024070000240A6
:1012D00088000240A00002407004024088040240DE
:1012E000A0040240B804024008540258406D704700
:1012F0002DE9FC5F0446F74E0020DFF8D88300900C
:101300004FF41652F44808F11808A56DDFF8C4939D
:10131000DFF8C0A3016809F1300920680AF1480A22
:10132000B1FBF2F1B04201912F68D5F800C0DFF8AF
:10133000ACB335D04146884232D0484530D05045D4
:101340002ED058452CD0E5491831884228D0E349A1
:101350003031884224D0E1494831884220D0E049E8
:1013600088421DD0DE491831884219D0DC4930311D
:10137000884215D0DA494831884211D0DFF860E35D
:101380000EF1600E70450BD0D54A7832904207D0EE
:10139000D34B9033984203D0D149A83188427DD1B4
:1013A00094F85C20082102F01F0201FA02F23A428E
:1013B0004AD0B04232D0404530D048452ED050457A
:1013C0002CD058452AD0C54A1832904226D0C34A5C
:1013D0003032904222D0C14A483290421ED0C04A98
:1013E00090421BD0BE4A1832904217D0BC4A3032CD
:1013F000904213D0BA4A483290420FD0B84A603275
:1014000090420BD0B64A7832904207D0B44A90321C
:10141000904203D0B24AA832904203D1026802F04F
:10142000040202E0026802F008026AB1026822F0D7
:101430000402026094F85C0000F01F008140A96083
:10144000606D40F00100606594F85C00012100F0DF
:101450001F008140394240D02068B04234D040451E
:1014600032D0484530D050452ED058452CD09B4ADC
:101470001832904228D0994A3032904224D0974A6C
:101480004832904220D0964A90421DD0944A183259
:10149000904219D0924A3032904200E0AFE113D02E
:1014A0008F4A483290420FD08D4A603290420BD022
:1014B0008B4A7832904207D0894A9032904203D0CA
:1014C000874AA83290427DD1406910F0800F04D045
:1014D000A960606D40F00200606594F85C00042132
:1014E00000F01F00814039423ED02068B04232D027
:1014F000404530D048452ED050452CD058452AD0B4
:10150000764A1832904226D0744A3032904222D025
:10151000724A483290421ED0714A90421BD0704AA3
:101520001832904217D06E4A3032904213D06C4A33
:10153000483290420FD06A4A603290420BD0684ADB
:101540007832904207D0664A9032904203D0644A83
:10155000A83290424ED1006810F0020F04D0A9606A
:10156000606D40F00400606594F85C00102100F0AC
:101570001F008140394258D02068B04234D04045E5
:1015800032D0484530D050452ED058452CD0534A03
:101590001832904228D0514A3032904224D04F4ADB
:1015A0004832904220D04E4A90421DD04C4A1832C8
:1015B000904219D04A4A3032904215D0484A4832B7
:1015C000904200E014E00FD0454A603290420BD0C8
:1015D000434A7832904207D0414A9032904203D039
:1015E0003F4AA832904207D1006800F0080006E0A8
:1015F000006872E70068B7E7006800F00400A0B177
:10160000A96020680168490304D50068000308D573
:10161000A16C07E00168C90503D4016821F0080145
:101620000160216C09B12046884794F85C002021B4
:1016300000F01F008140394279D02068B04232D09A
:10164000404530D048452ED050452CD058452AD062
:10165000224A1832904226D0204A3032904222D07C
:101660001E4A483290421ED01D4A90421BD01C4A4E
:101670001832904217D01A4A3032904213D0184A8A
:10168000483290420FD0164A603290420BD0144A32
:101690007832904207D0124A9032904203D0104ADA
:1016A000A832904203D1006800F0100002E0006808
:1016B00000F00200B0B3A96094F835000428206857
:1016C00001680FD049037ED5006800032BD4616CFC
:1016D0002AE00000100002402C00002070000240B0
:1016E0001004024021F0160101602068416921F0D8
:1016F00080014161206C08B9A06C20B120680168AC
:1017000021F00801016094F85C303F21012003F0D2
:101710001F0300229940A96084F8350084F8342022
:10172000216D65E003E0E16B09B120468847606DFB
:1017300000287DD0606DC00759D02068042184F84E
:101740003510B0422BD0404529D0484527D05045D0
:1017500025D0584523D09D49884220D09B49183137
:1017600088421CD099493031884218D09849884223
:1017700015D097491831884211D0954930318842A7
:101780000DD093494831884209D09149603188424F
:1017900005D08F497831884201D08D499031016858
:1017A00021F00101016020680099019A491C009113
:1017B000914202D80168C907F6D10068C00710D06D
:1017C00003200FE0FFE70168C905ACD403680121DD
:1017D000002223F01003036084F8351084F83420CD
:1017E000A1E7012084F83500002084F83400E16C82
:1017F00000291DD002B02046BDE8F05F08477549BA
:1018000088421DD073491431884219D0714928315A
:10181000884215D06F493C31884211D06D49503112
:1018200088420DD06B496431884209D0694900E093
:1018300084E07831884203D066498C3188427DD17A
:1018400094F85C800427016808F01F0807FA08F77D
:1018500017EA0C0F009746D04F0744D500980F04A5
:10186000686003D5C8033CD4A16CC1E7880638D4AE
:101870002068B0422DD055496039884229D048456A
:1018800027D0504525D0584523D05049884220D0F4
:101890004E49183188421CD04C493031884218D00A
:1018A0004B49884215D04A491831884211D04849DD
:1018B000303188420DD046494831884209D07045C0
:1018C00007D0904205D0984203D04149A8318842C0
:1018D00003D1016821F0080102E0016821F0040150
:1018E0000160216C84E7022707FA08F717EA0C0F5A
:1018F00000974ED08F074CD500980F04686003D531
:10190000C80344D4616C73E7880640D42068B042B1
:101910002FD02E49603988422BD0484529D05045D8
:1019200027D0584525D02949884222D02749183147
:1019300088421ED025493031884200E044E018D06A
:101940002349884215D022491831884211D02049B4
:10195000303188420DD01E494831884209D0704547
:1019600007D0904205D0984203D01949A831884247
:1019700003D1016821F0140102E0016821F00A019D
:101980000160012184F83510002084F83400E16BF7
:101990002EE7082202FA08F212EA0C0F14D0090707
:1019A00012D5016821F00E01016094F85C1001204D
:1019B000002201F01F0100FA01F16960606584F8FE
:1019C000350084F8342012E7BDE8FC9F880002400F
:1019D00010040240085402582DE9F05F044600F05C
:1019E0004DFC002C07467DD0E24E022120684FF0CE
:1019F0000308DFF884934FF00005DFF880A3B042BE
:101A0000DFF87CB334D0DB4A1832904230D04845FE
:101A10002ED050452CD058452AD0D94A1832904261
:101A200026D0D74A3032904222D0D54A483290420E
:101A30001ED0D44A90421BD0D24A1832904217D0BE
:101A4000D04A3032904213D0CE4A483290420FD022
:101A5000CC4A603290420BD0CA4A7832904207D0CA
:101A6000C84A9032904203D0C64AA83290427DD1F3
:101A700084F83510B04284F834502ED0BD49183166
:101A800088422AD0484528D0504526D0584524D0F1
:101A9000BB491831884220D0B949303188421CD026
:101AA000B7494831884218D0B649884215D0B5495F
:101AB0001831884211D0B349303188420DD0B14934
:101AC0004831884209D0AF496031884205D0AD49DC
:101AD0007831884201D0AB499031016821F0010191
:101AE000016008E025E100BF00F0C8FBC01B05282D
:101AF00001D920211AE120680068C007F4D1D4E997
:101B000002032168103418438E4694E88410D4E907
:101B1000033809683A4310439B4A40EA0C0067695E
:101B200018431140103C40EA0800042F40EA01002D
:101B300003D1D4E90B12114308436168A1F12902D2
:101B4000052A0BD9163A032A08D9083A012A05D9D9
:101B5000083A032A02D97439032901D840F48010C5
:101B6000CEF800002068676A406900E020E0042F9A
:101B700020F0070047EA00070DD1D4E90A01074326
:101B800049B12046FEF782FF28B14020606501215F
:101B900084F83510CDE0206847612046FEF794FEBA
:101BA00094F85C203F2102F01F029140816055E0D3
:101BB000764A90421BD0754B1433984217D0734B22
:101BC0002833984213D0714B3C3398420FD06F4B5F
:101BD000503398420BD06D4B6433984207D06B4B17
:101BE0007833984203D0694B8C3398427ED184F885
:101BF000351084F83450664B0168A26801EA030E80
:101C0000402A74D0802A73D05FF00002D4E90378B0
:101C1000D4E9053142EAD70242EAD8085B4AD4E95E
:101C2000077C48EAD30848EAD10141EAD701524289
:101C300041EA1C11142341EA0E010160206810449E
:101C4000B0FBF3F08000E0652046FEF73DFE94F81F
:101C50005C20012102F01F02914041602068B042E7
:101C600057D044491831884253D0484551D0504547
:101C70004FD058454DD042491831884249D040494B
:101C80003031884245D03E494831884241D03D49B3
:101C900088423ED03B49183188423AD039493031E8
:101CA000884236D037494831884232D03549603190
:101CB00088422ED03349783188422AD03149903138
:101CC000884226D02F49A831884222D02F49884205
:101CD0001FD02E49143188421BD02C49283188420C
:101CE00017D02A493C31884213D002E01DE017E0AA
:101CF00018E02649503188420BD02449643188428B
:101D000007D022497831884203D020498C3188425B
:101D100029D12046FEF732FEA06880280CD00CE0C6
:101D2000102273E74FF4804270E74021616584F828
:101D300035800120BDE8F09F6560216E2079086044
:101D4000D4E9190141606068401E072808D8204680
:101D5000FEF762FEE06E0560D4E91C01416002E01E
:101D6000E566256765670120656584F83500002014
:101D7000E0E700001000024040000240580002402E
:101D800070000240100402403F8010FE08540258C8
:101D90000F00FEFF2DE9F84F04008C464FF00000C5
:101DA000009014D094F83400012812D094F83550E3
:101DB0000120002184F83400012D0CD0C0026065A0
:101DC0000120009084F834100098BDE8F88F0120BD
:101DD000FBE70220F9E78C4D0226206884F8356085
:101DE000A8428A4D61658A4E8A4FDFF82C82DFF85F
:101DF0002C92DFF82CA2DFF82CB226D0A84224D0F7
:101E0000B04222D0B84220D040451ED048451CD018
:101E100050451AD0584518D08349884215D0824978
:101E20001831884211D08049303188420DD07E4926
:101E30004831884209D07C496031884205D07A49CE
:101E40007831884201D078499031016821F0010150
:101E5000016061462046FEF743FE6B4920688842D8
:101E60002CD0A8422AD0B04228D0B84226D0404533
:101E700024D0484522D0504520D058451ED06A4A2B
:101E800090421BD0684A1832904217D0664A3032CE
:101E9000904213D0644A483290420FD0624A603276
:101EA00090420BD0604A7832904207D05E4A90321E
:101EB000904203D05C4AA83290420CD1026822F0D2
:101EC0001E0242F016020260206C88B1206802688F
:101ED00042F008020BE0026822F00E0242F00A0211
:101EE0000260206C20B12068026842F004020260A7
:101EF000206888424BD0A84249D0B04247D0B8426F
:101F000045D0404543D0484541D050453FD0584545
:101F10003DD0454A90423AD0434A1832904236D09A
:101F2000414A3032904232D03F4A483290422ED01D
:101F30003D4A603290422AD03B4A7832904226D0C5
:101F4000394A9032904222D0374AA83290421ED06D
:101F5000364A90421BD0354A1432904217D0334A49
:101F60002832904213D0314A3C3290420FD02F4A4F
:101F7000503290420BD02D4A6432904207D02B4A07
:101F80007832904203D0294A8C3290420DD1206E93
:101F90000268D20303D5026842F480720260E06EE8
:101FA00018B1026842F4807202602068884226D02C
:101FB000A84224D0B04222D0B84220D040451ED002
:101FC00048451CD050451AD0584518D0164988426B
:101FD00015D015491831884211D013493031884243
:101FE0000DD011494831884209D00F4960318842EB
:101FF00005D00D497831884201D00B4990310168F4
:1020000041F001010160DFE61000024028000240BB
:102010004000024058000240700002408800024028
:10202000A0000240B80002401004024008540258C8
:1020300070B5044600F022F90546601C02D0044841
:102040000078044400F01AF9401BA042FAD370BD96
:10205000200000202DE9F84F03247A4D00234FF093
:1020600001094FF0B04B4FF00F0AE4E009FA03F614
:10207000324078D00F7907F00307012F01D0022FEB
:102080001AD187684FEA430ED1F80CC004FA0EF853
:1020900027EA08070CFA0EFC4CEA070CC0F808C047
:1020A000476891F804C0B743CCF3001C0CFA03FC5A
:1020B0004CEA070CC0F804C00E79F643B6070BD003
:1020C000C6684FEA43088F6804FA08FC26EA0C0643
:1020D00007FA08F73743C7600E7906F00306022EA9
:1020E00012D1DE080F694FEA437C00EB8606B64644
:1020F000366A4FEADC6C0AFA0CF807FA0CF726EAA3
:1021000008063743CEF820700F7906684FEA430877
:1021100007F0030704FA08FC07FA08F726EA0C069A
:10212000374307604E6816F4403F1CD0464E376870
:1021300047F00207376036689F0706F002060096F0
:1021400023F0030606F1B046B6463F0FD6F8086402
:10215000DFF8F8800AFA07FC404526EA0C0603D1AE
:102160004FF0000C3AE065E0DFF8E4C0604502D1D2
:102170004FF0010C32E0DFF8DCC0604502D14FF0D7
:10218000020C2BE0DFF8D0C0604502D14FF0030C09
:1021900024E0DFF8C8C0604502D14FF0040C1DE018
:1021A000DFF8BCC0604502D14FF0050C16E0DFF847
:1021B000B4C0604502D14FF0060C0FE0DFF8A8C0B4
:1021C000604502D14FF0070C08E0DFF8A0C0604581
:1021D00002D14FF0090C01E04FF00A0C0CFA07FC99
:1021E0004CEA060CCEF808C44F68DBF80060FF022A
:1021F00026EA020600D516435F46CBF80060D1F808
:1022000004C0DBF804605FEA8C2C26EA020600D5E5
:1022100016437E606E684F6826EA0206BF0300D54B
:1022200016436E602E684F6826EA0206FF0300D54B
:1022300016432E605B1C0A6832FA03F67FF416AF71
:10224000BDE8F88F80000058F4440258000002589E
:102250000004025800080258000C025800100258EE
:102260000014025800180258001C0258002402589A
:102270000AB1816170470904FBE7000001488068EA
:10228000704700002000002030B590F84120202A3F
:1022900024D190F84020012A20D0012380F840303A
:1022A000242280F84120202300240268156825F0AC
:1022B000010515600268156825F4805515600268EF
:1022C00015680D43156001680A6842F001020A6052
:1022D00080F8413080F84040002030BD022030BD01
:1022E00030B590F84120202A22D190F84020012AD0
:1022F0001ED0012380F84030242280F84120202481
:1023000000250268136823F0010313600268136854
:1023100023F4706343EA0121116001680A6842F006
:1023200001020A6080F8414080F84050002030BD32
:10233000022030BD70B5040004D094F8410000259F
:1023400010B106E0012070BD204684F8405000F036
:1023500051F8242084F841002068016821F001012F
:102360000160D4E9001020F0706008612068816885
:1023700021F400418160E06821680128A06830D024
:1023800040F404408860E0680228206841682BD04F
:1023900021F40061416020682021154A43681343FD
:1023A00043602068C26822F40042C26054F8106B97
:1023B0000DCC104340EA0320F06054F81C3CD4E9F3
:1023C00000021043186054F81C0D026842F001022C
:1023D0000260656484F84110256384F8425000204F
:1023E00070BD40F40040CDE741F40061D2E7000049
:1023F0000080000210B5B4B0044614212EA8FDF7E9
:10240000B9FFB8216846FDF7B5FF19492068884231
:102410002CD10020209008210446CDE90010684608
:1024200000F09EFA08B1FEF76CFC1248016841F01A
:102430000201016000680DF1B80C122100F00200E9
:102440003390C02004238CE8130002220A48CDE90F
:1024500031232EA9FFF7FEFD06480830016841F43C
:1024600000110160006800F40010339034B010BD1A
:1024700000540040E04402580004025802488168B9
:10248000027811448160704720000020032010B5BD
:1024900000F0D4F801F076F80F4A10491468136878
:1024A000C4F3032203F00F038A5CC95C02F01F022D
:1024B00001F01F01D0400A4A20FA01F111600949D8
:1024C00008600F2000F010F808B1012010BD00F0E6
:1024D00079F8002010BD0000184402588A860008D0
:1024E000300000202C00002070B50D4D04462878E7
:1024F000A0B14FF47A71B1FBF0F00A490968B1FB61
:10250000F0F001F0B3FD48B9102C07D200222146AB
:10251000501E00F073F800206C6070BD012070BD8B
:10252000200000202C000020154BF0B5083B42781D
:1025300013491A600B680A1F23F001030B604368FC
:102540001360057BC67A827A437B2D07847B45EA3C
:102550000665C77B90F809C0067A90F800E045EA66
:10256000C24040EA834040EA444040EA074040EA33
:102570000C2040EA460040EA0E000860F0BD000072
:10258000A0ED00E0BFF35F8F044800210368034A19
:1025900023F48033036070321160704724ED00E053
:1025A000074A40F00100064970321060086840F4A4
:1025B00080300860BFF34F8FBFF36F8F704700000C
:1025C00024ED00E0054808B5016841F00201016012
:1025D000006800F00200009008BD0000F4440258BA
:1025E000002809DB410900F01F028900012001F1E8
:1025F000E0219040C1F80001704700000E4BF0B49C
:102600001B680D46C3F30223C3F10706042E00D94D
:102610000426191D072901D2002300E0DB1E012436
:1026200004FA06F19C40491E2940641E994014405A
:102630002143F0BC05F048BB0CED00E0064900F07A
:10264000070210B54FF6FF040868044B204040EA2B
:1026500002201843086010BD0CED00E00000FA05F0
:10266000134970B50A68D243520705D5096801F0CD
:102670000701814213D118E00A6822F007020243E1
:102680000A60FFF7FBFD0A4D4FF47A760446083DD9
:1026900007E000BFFFF7F2FD001BB04201D90120A7
:1026A00070BD2868C0438004F4D4002070BD0000D1
:1026B0000C48025810B500F01FFF05490968054A8B
:1026C000C1F30211515C01F01F01C84010BD0000B0
:1026D000204402588A860008494930B5484C0B1DF1
:1026E0000A68143409681D68246802F00303C5F3FE
:1026F0000012C1F30531C4F3CC04002914FB02F22B
:1027000000EE102AF8EE400A75D03F4A9FED3D1AC0
:10271000B7EE000A6BB1DFED3D1A012B01D0022BA1
:1027200064D002EE101A1168F8EE422A81EEA22A55
:1027300021E0334C283C23689B0612D5344B246897
:1027400001EE901A1168C4F3C104F8EE612AE34067
:1027500001EE903AC1F30801F8EE611A81EEA22A67
:102760000BE001EE901ADFED2B2A00BFF8EE611AA4
:10277000116882EEA12AC1F3080101EE901A1168D6
:10278000F8EE611A40EE811A71EE800A62EE200ABC
:10279000C1F3462101EE101AB8EE411A31EE001ACB
:1027A000C0EE811ABCEEE11A80ED001A1168C1F387
:1027B000064101EE101AB8EE411A31EE001AC0EED1
:1027C000811ABCEEE11A80ED011A1168C1F30661AD
:1027D00001EE101AB8EE411A31EE000A80EE801AAE
:1027E000BCEEC10A80ED020A30BD04E001EE901A91
:1027F000DFED092ABAE70021016041608160F3E75B
:102800002844025800000039384402580024744A11
:102810000090D0030024744C20BCBE4B494930B515
:10282000484C0B1D0A681C3409681D68246802F0B6
:102830000303C5F30022C1F30551C4F3CC040029FE
:1028400014FB02F200EE102AF8EE400A75D03F4A5F
:102850009FED3D1AB7EE000A6BB1DFED3D1A012B7B
:1028600001D0022B64D002EE101A1168F8EE422A51
:1028700081EEA22A21E0334C283C23689B0612D526
:10288000344B246801EE901A1168C4F3C104F8EEC9
:10289000612AE34001EE903AC1F30801F8EE611AB3
:1028A00081EEA22A0BE001EE901ADFED2B2A00BF89
:1028B000F8EE611A116882EEA12AC1F3080101EE57
:1028C000901A1168F8EE611A40EE811A71EE800AD2
:1028D00062EE200AC1F3462101EE101AB8EE411A49
:1028E00031EE001AC0EE811ABCEEE11A80ED001A3A
:1028F0001168C1F3064101EE101AB8EE411A31EE2B
:10290000001AC0EE811ABCEEE11A80ED011A1168BE
:10291000C1F3066101EE101AB8EE411A31EE000A59
:1029200080EE801ABCEEC10A80ED020A30BD04E0E0
:1029300001EE901ADFED092ABAE70021016041603B
:102940008160F3E7284402580000003940440258EF
:102950000024744A0090D0030024744C20BCBE4B69
:102960002DE9FE4F0546DFF800A450F8081B0024AF
:10297000FD4FC943019005F1280026460AF1240ABB
:10298000009008011DD4686E50B1B0F5801F0CD0C6
:10299000B0F5001F0ED0B0F5401F1ED001240FE08F
:1029A000386840F40030386017E00198022103F0E5
:1029B000FBFB03E00098022103F086FC04000CD02E
:1029C00026462888C043C00523D4A86D05281ED2FA
:1029D000DFE800F00C11161B1B006A6EDAF800101D
:1029E00021F440111143CAF80010EAE7386840F4B6
:1029F0000030386009E00198002103F0D5FB03E0C6
:102A00000098002103F060FC0446C4B100E00124FA
:102A100026462888DFF85083C04308F12C0840057B
:102A20002FD4D5F8A400B0F5C00F28D010DCB8B171
:102A3000B0F5001F19D0B0F5800F0FD11AE0AA6DC4
:102A4000DAF8001021F007011143CAF80010E0E79E
:102A5000B0F5000F13D0B0F5200F10D001240FE017
:102A6000386840F40030386009E00198002103F034
:102A70009BFB03E00098002103F026FC044694B180
:102A800026462888C043000530D4D5F8A800B0F108
:102A9000407F29D011DCC0B1B0F1807F1AD0B0F1F5
:102AA000007F10D11BE0D5F8A420D8F8001021F445
:102AB00060011143C8F80010E3E7B0F1806F13D054
:102AC000B0F1A06F10D001240FE0386840F400305E
:102AD000386009E00198002103F066FB03E00098EC
:102AE000002103F0F1FB044694B126462868DFF884
:102AF00078B2C0430BF1200B80011FD4E86CD8B131
:102B000010280FD0202812D0302815D0012414E02E
:102B1000D5F8A820D8F8001021F0E0611143C8F8DA
:102B20000010E3E7386840F40030386004E00198B2
:102B3000022103F039FB044674B126462888C043BD
:102B4000C0042BD4E86DB0F5005F20D00DDCA0B13F
:102B5000B0F5805F0FD115E0EA6CDBF8001021F0D2
:102B600030011143CBF80010E8E7B0F5405F13D017
:102B7000B0F5804F10D001240FE0386840F40030E9
:102B8000386009E00198002103F00EFB03E0009893
:102B9000002103F099FB04468CB126462888C043E7
:102BA000800429D4286EB0F5403F23D010DC08B350
:102BB000B0F5803F14D0B0F5003F0FD115E0EA6DBD
:102BC000DAF8001021F4E0411143CAF80010E5E7FB
:102BD000B0F5802F0ED0B0F5A02F0BD001240AE065
:102BE0000198012103F0E0FA03E00098012103F0CD
:102BF0006BFB044694B126462888C04340042AD47F
:102C0000D5F8AC00B0F1405F23D010DC08B3B0F1D0
:102C1000805F14D0B0F1005F0FD115E02A6EDAF8B2
:102C2000001021F4E0211143CAF80010E4E7B0F1EC
:102C3000804F0ED0B0F1A04F0BD001240AE00198D4
:102C4000012103F0B1FA03E00098012103F03CFBFD
:102C5000044674B126462888C04300041FD4E86E99
:102C6000D8B1B0F1805F0ED0B0F1005F10D0012478
:102C700014E0D5F8AC20D8F8001021F0E041114361
:102C8000C8F80010E7E7386840F40030386004E026
:102C90000198012103F088FA044674B12646286899
:102CA000C043C0011ED4A86CD0B101280ED00228A8
:102CB00011D0032814D0012413E0EA6EDAF80010D2
:102CC00021F040511143CAF80010E8E7386840F499
:102CD0000030386004E00198022103F065FA0446F0
:102CE0006CB126462868C043400255D41F4801688D
:102CF00041F480710160FFF7C1FA81460EE0AA6CD1
:102D0000DBF8001021F003011143CBF80010E9E7D4
:102D1000FFF7B4FAA0EB090064283BD81348006819
:102D2000C005F5D5BCBBDFF84090B5F8B01009F18F
:102D30004409D9F8000001F4407100F44070884261
:102D400011D0D9F80010D9F8002021F4407142F4D4
:102D50008032C9F80020D9F8002022F48032C9F866
:102D60000020C9F8001003E02C4402580048025823
:102D7000D5F8B000B0F5807F19D1FFF77FFA029047
:102D800011E000BFFFF77AFA0299411A41F2883048
:102D9000814208D9032426462878DFF81494C043DA
:102DA000C00721D03CE0D9F800008007EAD5D5F86B
:102DB000B010C1F301200328FE480DD0016821F4B2
:102DC0007C510160B5F8B020D9F80010C2F30B02B5
:102DD0001143C9F80010DFE7F74A036802EA11124D
:102DE00023F47C511143ECE7A86F182816D005DCBA
:102DF000A0B1082808D0102804D10AE020280DD05E
:102E000028280BD001240AE00198012103F0CCF915
:102E100003E00098012103F057FA044664B1264606
:102E20002878C04380071ED4686F062819D2DFE8CF
:102E300000F0160C11161616AA6FD9F8001021F022
:102E400038011143C9F80010EAE70198012103F0A5
:102E5000ABF903E00098012103F036FA04467CB197
:102E600000E0012426462878C04340071FD4D5F847
:102E70009000062819D2DFE800F0160C111616167D
:102E80006A6FD9F8001021F007011143C9F800104A
:102E9000E9E70198012103F087F903E00098012197
:102EA00003F012FA0446A4B100E001242646287873
:102EB000C04380062BD4D5F88C00B0F1405F24D0FD
:102EC00011DC10B3B0F1805F15D0B0F1005F10D10C
:102ED00016E0D5F89020D8F8001021F00701114332
:102EE000C8F80010E3E7B0F1804F0ED0B0F1A04F6A
:102EF0000BD001240AE00198002103F055F903E00A
:102F00000098022103F0E0F9044694B1264628789F
:102F1000C04340062BD4D5F89800B0F5406F24D0BC
:102F200011DC10B3B0F5806F15D0B0F5006F10D183
:102F300016E0D5F88C20D9F8001021F0E0411143BB
:102F4000C9F80010E3E7B0F5805F0ED0B0F5A05FE0
:102F50000BD001240AE00198002103F025F903E0D9
:102F60000098022103F0B0F9044694B1264628786F
:102F7000C04300062BD4D5F89C00B0F5C04F24D038
:102F800011DC10B3B0F5005F15D0B0F5804F10D153
:102F900016E0D5F89820D8F8001021F4E05111433C
:102FA000C8F80010E3E7B0F5004F0ED0B0F5204FA1
:102FB0000BD001240AE00198002103F0F5F803E0AA
:102FC0000098022103F080F9044654B1264628787F
:102FD000C04300071ED4D5F88000B0F5805F0AD04A
:102FE0000FE0D5F89C20D8F8001021F4604111437F
:102FF000C8F80010EBE70098022103F065F900B172
:103000000126D5F88020D9F8001021F44051114351
:10301000C9F800102878C043C00613D4D5F894002E
:10302000B0F5807F05D10098022103F04DF900B181
:103030000126D5F89420D8F8001021F440711143EE
:10304000C8F800102868C043000316D4D5F8A000C3
:1030500038B1B0F5803F09D0B0F5003F0BD0012466
:103060000AE00198002103F09FF803E00098022194
:1030700003F02AF904468CB126462868C043400371
:1030800022D4D5F88400B0F5801F11D0B0F5001F10
:1030900013D0B0F5401F15D0012414E0D5F8A020BE
:1030A000D8F8001021F440311143C8F80010E4E7CB
:1030B000386840F40030386004E00098012103F0E3
:1030C00003F904465CB126462868C043C0031CD4FB
:1030D000286D70B1B0F5803F10D0012414E0D5F810
:1030E0008420D9F8001021F440111143C9F80010D0
:1030F000EAE7386840F40030386004E001980221C3
:1031000003F052F80446DCB126462868C04380002C
:1031100005D40098022103F0D7F800B101262868F1
:10312000C04380031BD4E86FB8B1B0F5807F10D0E6
:10313000B0F5007F11D0B0F5407F0ED001240DE036
:103140002A6DDBF8001021F480311143CBF8001018
:10315000DBE7386840F4003038607CB326462868E6
:10316000C043C00207D42A6FDAF8001021F00041F2
:103170001143CAF800102868C043800207D4AA6E21
:10318000DAF8001021F080711143CAF800102868A5
:10319000C043400009D40748016821F400410160A0
:1031A0000168D5F8B420114301602868C04306E0E7
:1031B0005444025810440258CFFFFF001DE007D4CA
:1031C0006A6DDBF8001021F040511143CBF800107C
:1031D0002868C043000208D4D5F88820D9F8001028
:1031E00021F440011143C9F8001028790024C0439C
:1031F00000F00100204309D00EE0EA6FD9F800107A
:1032000021F440711143C9F80010A8E7019800218A
:1032100002F0CAFF00B106462879C04300F0020060
:10322000204305D10198012102F0BEFF00B10646FE
:103230002879C04300F00400204305D10198022101
:1032400002F0B2FF00B106462879C04300F0080042
:10325000204305D10098002103F036F800B106465E
:103260002879C04300F01000204305D100980121C7
:1032700003F02AF800B106462879C04300F0200088
:10328000044304D10098022103F01EF800B916B1DE
:103290000120BDE8FE8F0020FBE700002DE9F05F74
:1032A00004000F467ED0DFF83882D8F8000000F026
:1032B0000F00B8420CD2D8F8001021F00F013943AA
:1032C000C8F80010D8F8000000F00F00B84269D12B
:1032D0002078844D40070AD52069296801F07001E3
:1032E000884204D9296821F07001014329602078BF
:1032F0007C4E361D00070AD56069316801F0700107
:10330000884204D9316821F070010143316020788E
:10331000C0060AD5A069316801F4E061884204D989
:10332000316821F4E061014331602078DFF8B4B105
:1033300080060BF1080B0CD5E1695846DBF800203C
:1033400002F07002914204D9026822F070020A432E
:103350000260207880070AD5E068296801F00F0133
:10336000884204D9296821F00F010143296020789F
:10337000C0073ED05B49A2682868183920F4706005
:10338000104328606068022818D0032819D0096803
:10339000012819D0490700294ADADFF848A1AAF123
:1033A000080A00E044E0DAF8002022F007020243B5
:1033B000CAF80020FEF762FF814612E0096889031F
:1033C000E9E709688901E6E7C905E4E7FEF756FF82
:1033D000A0EB090141F28830814202D90320BDE807
:1033E000F09F6168DAF8000000F03800B0EBC10F20
:1033F000ECD1207880070AD5E068296801F00F0138
:10340000884204D2296821F00F0101432960D8F8CD
:103410000010404601F00F01B9420BD9016821F0BC
:103420000F0139430160006800F00F00B84201D07D
:103430000120D4E7207840070AD52069296801F0E7
:103440007001884204D2296821F07001014329608B
:10345000207800070AD56069316801F07001884260
:1034600004D2316821F07001014331602078C00638
:103470000AD5A069316801F4E061884204D231685C
:1034800021F4E06101433160207880060CD5E169C8
:103490005846DBF8002002F07002914204D2026824
:1034A00022F070020A43026000F06CF80E492A68AC
:1034B0002B68C2F3032203F00F038A5CC95C02F09D
:1034C0001F0201F01F01D040084A20FA01F11160EB
:1034D0000749086007480068BDE8F05FFFF704B8D7
:1034E00000200052184402588A860008300000204C
:1034F0002C0000202400002030B500F043F80B4AD7
:103500000B490C4B15681468C5F3032204F00F0433
:103510008A5C095D02F01F0201F01F01D040064ADB
:1035200020FA01F119601060084630BD18440258B5
:103530008A860008300000202C00002000B5FFF72C
:10354000DBFF05490968054AC1F30211515C01F02E
:103550001F01C84000BD00001C4402588A860008B4
:1035600000B5FFF7C9FF05490968054AC1F3022103
:10357000515C01F01F01C84000BD00001C4402580E
:103580008A860008454970B545480968434B103B99
:1035900011F0380208D00111082A03D0102A0BD0EC
:1035A000182A0BD0084670BD19688906FBD5196822
:1035B000C1F3C101C84070BD3A4870BD3749374DAD
:1035C00018310C1D24350A68096826682D6802F038
:1035D000030406F00102C1F30511C5F3CC0515FB88
:1035E00002F200EE102AB8EE400AE9B32F4ADFEDEE
:1035F0002E0AB7EE001A6CB1DFED2D1A012C01D0A6
:10360000022C43D002EE101A1068F8EE422A81EE26
:10361000A22A1EE01C68A40611D51B6801EE901AB0
:103620001168C3F3C103F8EE612AD84001EE900A95
:10363000C1F30800F8EE611A81EEA22A0BE001EE58
:10364000901ADFED1C2A00BFF8EE611A106882EEB6
:10365000A12AC0F3080001EE900AF8EE611A40EECC
:10366000201A31EE810A00E015E022EE000A10680F
:10367000C0F34620401C00EE900AF8EE600A80EE8F
:10368000201ABCEEC10A10EE100A70BD01EE901AAD
:10369000DFED092AD8E7002070BD00001044025871
:1036A0000090D00340787D0100000039304402587A
:1036B0000024744A0024744C20BCBE4B2DE9F05FFA
:1036C00004007DD0FF4F2078FE4D1837DFF8F483DB
:1036D000103DC00748D0D8F80000396800F0380025
:1036E000102815D0182803D101F0030002280FD0AC
:1036F0006068B0F5803F12D010B1B0F5A02F18D09F
:10370000286820F480302860286820F4802009E0B0
:103710002868800328D560680028D2D024E0286873
:1037200040F480302860606888B1FEF7A7FD064647
:1037300009E0286840F480202860F0E7FEF79EFD4D
:10374000801B64287ED828688003F7D50CE0FEF73C
:1037500095FD064605E000BFFEF790FD801B64283E
:10376000F0D828688003F7D42078800756D5D8F899
:103770000000DFF85093396810F03800A9F10C0907
:103780000ED0182801D188070AD0E068A8B32968AC
:1037900021F0190101432960FEF770FD064628E07B
:1037A0002868400702D5E06800288AD0E1682868C8
:1037B00020F0190008432860FEF760FD064606E089
:1037C000D2E000BFFEF75AFD801B0228BAD8286855
:1037D0004007F7D5217CD9F8002022F0FE4242EACA
:1037E0000161C9F8001019E0FEF748FD801B0228AE
:1037F000A8D828684007F7D5ECE7FFE7286820F04D
:1038000001002860FEF73AFD064604E0FEF736FDAB
:10381000801B022896D828684007F7D42078C00675
:1038200046D5D8F80000DFF89C92396800F03800DF
:10383000A9F10409082812D0182805D101F00300C5
:10384000012800E0CEE00AD0E0690028286820D0F6
:1038500040F080002860FEF711FD064615E028685C
:10386000C00502D5E06980287ED194F82010D9F8EF
:10387000002022F07C5242EA0161C9F8001017E0F2
:10388000FEF7FCFC801B0228A0D82868C005F7D5ED
:10389000EBE720F080002860FEF7F0FC064604E02D
:1038A000FEF7ECFC801B022890D82868C005F7D4EE
:1038B0002078000729D58348616964300029814652
:1038C000016811D041F001010160FEF7D7FC064606
:1038D00005E000BFFEF7D2FC801B022888D8D9F88B
:1038E00000008007F6D510E021F001010160FEF72D
:1038F000C5FC064605E000BFFEF7C0FC801B0228A1
:1039000070D8D9F800008007F6D42078800623D537
:10391000A0690028286810D040F480502860FEF785
:10392000ADFC064605E000BFFEF7A8FC801B0228A0
:1039300058D828688004F7D50EE020F4805028601D
:10394000FEF79CFC064604E0FEF798FC801B02286C
:1039500048D828688004F7D42078400751D5DFF88C
:103960006891D9F8001000E015E141F48071C9F8C0
:103970000010FEF783FC064605E000BFFEF77EFC64
:10398000801B64282ED8D9F80000C005F6D54D4E0E
:10399000A068603601280AD008B1052813D0306825
:1039A00020F001003060306820F0040002E0306850
:1039B00040F001003060A06841F2883A98B1FEF70B
:1039C0005DFC81460AE0306840F004003060EEE7BC
:1039D000FEF754FCA0EB0901514503D8306880077D
:1039E000F6D50EE072E0FEF749FC814606E000BF26
:1039F000FEF744FCA0EB0901514567D83068800709
:103A0000F6D4606A00287CD0DFF8B8A0D8F800109F
:103A10000AF1200A4FF6F87B0AF10408C1F3C2014B
:103A20000329AAF104096DD00228286820F08070CB
:103A3000286003D0FEF722FC044681E0FEF71EFC5E
:103A4000064604E0FEF71AFC801B022875D8286899
:103A50008001F7D4E26A40F2F331386854F8283F25
:103A6000884340EA021018433860217B4FF4FE0C73
:103A700022894FF0FE47208A4902267D521E401EB1
:103A8000A1F5007189B2C2F308021143761E0CEA57
:103A900000400143484607EA06621143CAF8001095
:103AA000D9F8001021F00101C9F80010D8F8003051
:103AB000266A23EA0B0343EAC601C8F80010D9F8C6
:103AC000001004E0104402580048025835E0A26992
:103AD00021F00C011143C9F800100168E26921F0DE
:103AE000020111430160016841F480310160016805
:103AF00041F400310160016841F4802101600168F6
:103B000001E06CE020E041F001010160286840F034
:103B100080702860FEF7B2FB044604E0FEF7AEFBBF
:103B2000001B022809D828688001F7D557E000BF9C
:103B3000FEF7A4FB001B022802D90320BDE8F09F7A
:103B400028688001F4D44AE039680128DAF80000D6
:103B500021D0A26A01F0030393421CD1E26AC1F3AF
:103B600005118A4217D1216BC0F30802491E8A420F
:103B700011D1616BC0F34622491E91420BD1A16B5A
:103B8000C0F30642491E914205D1E16BC0F30660C5
:103B9000491E814201D00120D0E7A16C4646D8F8E9
:103BA0000000C0F3CC00814219D0D9F800004D4686
:103BB00020F00100C9F80000FEF760FB4FEA0007A3
:103BC000FEF75CFBB842FBD0A26C306820EA0B0029
:103BD00040EAC2003060286840F001002860002000
:103BE000ACE700002DE9F047040029D0594A4FF016
:103BF00000092068584B594D9042C4F8289006D0CF
:103C0000984204D0A84202D0E1680F2918D8E16890
:103C10004FF0010AE76B0831C9080AEB57167143E8
:103C2000904205D0984203D0A84201D0082907D875
:103C3000904203D0984201D0A84204D1102902D961
:103C40000120BDE8F08794F8810020B9204684F86F
:103C5000809000F085F8022084F8810020680168D7
:103C600021F0010101602068A1698268B1F1806FD3
:103C700002F4F81110D16268B2F5800F01D01AB1C8
:103C80000AE0A26B22B107E0A26BB2F1805F03D120
:103C9000026842F4805202606068400209D5E06820
:103CA000072806D32068236D026822F480721A4325
:103CB00003E02068026822F480720260A66AE0696C
:103CC000E26B25683043E3680A4310431843A86059
:103CD000D4E90D02D4E90581636A25691843D4F853
:103CE00020C00A43266810432843A56DD4E9017219
:103CF000D4E9123140EA080040EA0C003843084396
:103D0000104318432843F060606868B920688168F0
:103D100021F4C05141F4006181602068816821F480
:103D2000C06141F4806181602068016D21F0010172
:103D300001656068400206D52068626DC16821F0A7
:103D400000411143C160C4F8849084F881A0002030
:103D500077E700000030014000380040003C0040A0
:103D600070B5B4B0044614212EA8FCF703FBB821AB
:103D70006846FCF7FFFA2C492068884251D10020A0
:103D80002B904FF480410446CDE900106846FEF7C1
:103D9000E7FD08B1FCF7B5FF2448016841F02001B8
:103DA0000160006800F0200033902048143801685A
:103DB00041F040010160016801F040013391016868
:103DC00041F040010160016801F040013391016858
:103DD00041F04001016000682EAD0221144E00F058
:103DE000400033904FF4C240052385E813000322BE
:103DF0003046CDE931232EA9FEF72CF901252EA955
:103E000028032E90CDE92F5430463194FEF722F945
:103E1000E8032E90CDE92F542EA930463194FEF7B9
:103E200019F934B070BD000000140058F444025871
:103E3000001802582DE9F84F994617468A4604465D
:103E4000FEF71CFA064694F88100012839D1BAF130
:103E5000000F7CD0002FFCD094F88000012830D0D7
:103E6000A26800254FF0010884F88080032184F8BF
:103E70008110C4F88450C4F85CA06566A4F868504A
:103E8000656725672C34B2F5C02FA786E786E587DE
:103E900054F82C0D18D0C16821F4C02141F4003130
:103EA000C160206841686FF30F01394341602068A9
:103EB000016841F0010101606068B0F5800F08D031
:103EC0000CE00220BDE8F88F016841F40061016058
:103ED000E7E72068016841F400710160E0680F289D
:103EE0001CD820E02068416989070BD5E16D09687D
:103EF0000162E06D001DE065B4F86200401EA4F8A8
:103F000062000BE0FEF7BAF9811B494503D3B9F112
:103F1000FF3F03D09BE0B9F1000F31D0B4F862004D
:103F20000028DFD177E007282ED870E020684169AB
:103F300089071DD5B4F8621001290DD9E16B59B17B
:103F4000E16D09680162E06D001DE06500E07CE064
:103F5000B4F86200801E08E0E16D09880184E06D1C
:103F6000801CE065B4F86200401EA4F862000BE01B
:103F7000FEF784F9811B494503D3B9F1FF3F03D014
:103F800065E0B9F1000F62D0B4F862000028CDD12D
:103F900041E02068416989072DD5B4F862100329F2
:103FA0000CD9E16B402909D9E16D09680162E06D26
:103FB000001DE065B4F86200001F19E0B4F862105B
:103FC00001290BD9E16B49B1E16D09880184E06DEC
:103FD000801CE065B4F86200801E09E0E16D09789C
:103FE00080F82010E06D401CE065B4F86200401ECF
:103FF000A4F862000BE0FEF741F9811B494503D3A9
:10400000B9F1FF3F03D022E0B9F1000F1FD0B4F89F
:1040100062000028BDD100224B46082120460096B0
:1040200002F01EFB28B1D4F8840040F02000C4F850
:104030008400204602F0D8F984F88180D4F8840006
:1040400084F8805000283FF43DAF01203AE7204635
:1040500002F0CAF9D4F8841084F8805041F48071D9
:10406000C4F8841084F8818003202BE7401EB0F14F
:10407000807F10B501D3012010BD4FF0E0246061B6
:104080000F21601703F020FE0020A06107212161AD
:1040900010BD704770477047F0B590F83C20012A7A
:1040A00043D0012280F83C20D1E90242204ECD6964
:1040B00022F440722243D1E9004322F480621A4381
:1040C00022F400622243D1E9043422F480521A43DC
:1040D0000B6B22F4005222430C8B22F480421A43D1
:1040E000036822F4702242EA0442002422F0805243
:1040F000B34242EA050202D00E4DAB4210D10F8D01
:1041000022F4700CD1E90862CD6A4CEA075121F023
:104110008071314321F00071114321F000522A4394
:104120005A6480F83C400020F0BD0220F0BD000041
:104130000000014000040140F0B590F83C20012A45
:1041400041D0224E012480F83C40022280F83D20DC
:1041500002681F4D5368B242D2F808C001D0AA428B
:1041600003D14F6823F470033B430F6823F07003BF
:104170001F4357600268B24219D0B2F1804F16D087
:10418000144B9A4213D0144B9A4210D0134B9A42BC
:104190000DD0AA420BD0124B9A4208D0114B9A4232
:1041A00005D0114B9A4202D0104B9A4204D1896833
:1041B0002CF0800319439160002180F83D4080F885
:1041C0003C100846F0BD0220F0BD00000000014098
:1041D000000401400004004000080040000C0040C2
:1041E000001800400040014000E0004000E40040B2
:1041F00010B5040003D094F83D0010B107E0012091
:1042000010BD002084F83C00204600F023F8022076
:1042100084F83D002068211D02F0FAFA012084F89C
:10422000480084F83E0084F83F0084F8400084F899
:10423000410084F8420084F8430084F8440084F884
:10424000450084F8460084F8470084F83D000020CB
:1042500010BD000008B5184A01681848914207D1FE
:10426000016841F001010160006800F001000CE00C
:10427000B1F1804F0BD0124A914207D1016841F051
:1042800002010160006800F00200009008BD0B48C8
:104290000838016841F00101016000680022114600
:1042A00000F0010000901C20FEF7A8F9BDE80840CE
:1042B0001C20FEF795B9000000000140F0440258B0
:1042C0000004014090F83D10012901D00120704701
:1042D0001A4A022180F83D100168CB6843F00103BF
:1042E000CB60006890421AD0B0F1804F17D01449CB
:1042F000884214D01349884211D0134988420ED005
:10430000124988420BD01249884208D0114988428C
:1043100005D01149884202D01049884207D18168EE
:104320000F4A1140062906D0B1F5803F03D001683D
:1043300041F00101016000207047000000000140D1
:104340000004004000080040000C00400004014050
:10435000001800400040014000E0004000E4004040
:104360000700010070B5044690F83C0000250128C4
:1043700014D03A4B012684F83C60022084F83D00BA
:1043800022689068184020F47F4090600868702888
:104390002FD010DC10F00F0F03D022E04FF00200FE
:1043A00070BD4FEA2012072A1BD2DFE802F05353F8
:1043B00053534B394100B0F1101F4BD009DCB0F51D
:1043C000805F0FD0B0F5005F1ED0B0F5801F08D120
:1043D00040E0A0F5801120393CD010293AD02029A6
:1043E00038D0012584F83D60002084F83C00284640
:1043F00070BD4A682068D1E9021302F088FA20688B
:10440000816841F0770109E04A682068D1E9021328
:1044100002F07DFA2068816841F480418160E1E723
:10442000CA684968206802F033FC2068502106E021
:10443000CA684968206802F03CFC2068602102F0EC
:104440006FFACFE7CA684968206802F021FC20684B
:104450004021F4E7226801461046F0E788FFCEFFCE
:104460002DE9F04104000D4603D094F83D0018B149
:1044700008E00120BDE8F081002084F83C002046DF
:1044800000F04CF8244A022084F83D00206881683E
:10449000114081602068211D02F0BAF9226840F2C3
:1044A0000336AF6940F60C4C2B684FF2F00EA8684B
:1044B00091680B439169B14341EA07210843D5E96B
:1044C000031720EA0C00D5E9076C20EA0E00D2F8A9
:1044D00020E03F0140EA062668686D69314347EAFB
:1044E0000C37936023680F4301219F612EF0AA02CD
:1044F00042EA051322681843106284F8481084F8D1
:104500003E1084F83F1084F8441084F8451084F875
:104510003D100020AEE70000F8BFFEFF2DE9F0419E
:1045200086B0054614216846FBF724FF494902245A
:1045300028680125484B0839464A0326984226D167
:10454000106840F002001060106800F00200059052
:10455000086840F004000860086800F00400059056
:10456000086840F0020008600868694600F0020030
:10457000059080208DE8710038480494FDF76AFDAD
:10458000102069468DE871003548049419E0354BD8
:1045900098421BD1106840F004001060106800F0D1
:1045A00004000590086840F0080008600868694643
:1045B00000F0080005904FF440508DE871002A4843
:1045C0000494FDF747FD06B0BDE8F081274B984203
:1045D00017D1106840F008001060106800F0080063
:1045E0000590086840F00100086008686946CDE958
:1045F000006400F00100CDE90256CDE904401C48FA
:10460000DFE71C4A9042DED11248001D026842F0EA
:1046100080720260006800F080700590086840F0C9
:104620002000086008680D27DFF84C80694600F01C
:104630002000059000200497CDE90054CDE90250F8
:104640004046FDF707FD01AA00946946404682E80E
:10465000F000B6E7E84402580004004000080258A1
:104660000004025800080040000C0258000C0040F2
:104670000000025800E000400014025870B50446E3
:104680004FF0020094F83E2094F83F5094F84460B4
:1046900094F8453021B104290DD0012A1AD113E034
:1046A000012A17D1012E15D184F83E0084F8440068
:1046B0000021206820E0012D0CD1012B0AD184F8C3
:1046C0003F0084F8450014E0012D03D1012E01D1F3
:1046D000012B01D0012070BD84F83E0084F83F001A
:1046E00084F8440084F8450001222068002102F08B
:1046F00001F920680122042102F0FCF82068016819
:1047000041F001010160002070BD70472DE9F041CA
:10471000044600680027C6680569A90713D5B107D4
:1047200011D5FA1E02610121217720688069800776
:10473000204602D0FFF7E9FF04E000F0E3F820464E
:1047400000F0A5F92777680716D5700714D52268F9
:1047500002206FF00401116120772068806910F455
:10476000407F204602D0FFF7D0FF04E000F0CAF8F7
:10477000204600F08CF92777280715D5300713D588
:10478000226804206FF00801116120772068C06959
:104790008007204602D0FFF7B8FF04E000F0B2F82F
:1047A000204600F074F92777E80616D5F00614D5F0
:1047B000226808206FF01001116120772068C0691D
:1047C00010F4407F204602D0FFF79FFF04E000F086
:1047D00099F8204600F05BF92777E80708D0F00742
:1047E00006D021686FF001000861204600F050F902
:1047F000280601D4A80408D5300606D521686FF430
:10480000025008612046FFF745FCE80508D5300650
:1048100006D521686FF4807008612046FFF739FCE7
:10482000680608D5700606D521686FF0400008615B
:10483000204600F02EF9A8060AD5B00608D5216852
:104840006FF0200008612046BDE8F041FFF723BC6F
:10485000BDE8F08170B586B0044614216846FBF7C8
:1048600089FD224A4FF00205216800242048914228
:1048700012D1016841F0100101600068012100F0CF
:10488000100005904FF47C500090CDE90154CDE923
:1048900003411848694625E0174A914224D101682E
:1048A00041F001010160016801F001010591016819
:1048B00041F00401016000680326694600F004002D
:1048C000059020200090CDE901540C48CDE9034625
:1048D000FDF7C0FB40200090CDE90154084869462F
:1048E000CDE90346FDF7B6FB06B070BD0000014000
:1048F000E044025800100258000401400000025831
:1049000000080258704770B5044690F83C00002635
:104910000D4601280BD0012084F83C000C2A4AD017
:1049200007DC82B1042A20D0082A06D131E0022017
:1049300070BD102A53D0142A63D00126002084F8B9
:104940003C00304670BD206802F008F8206881699C
:1049500041F0080181612068816921F004018161D1
:1049600020682A698169114311E0206802F048F843
:104970002068816941F4006181612068816921F4C6
:104980008061816120682969826942EA012181612F
:10499000D4E7206802F080F82068C16941F008017E
:1049A000C1612068C16921F00401C16120682A69E0
:1049B000C169114311E0206802F0BAF82068C169AA
:1049C00041F40061C1612068C16921F48061C16165
:1049D00020682969C26942EA0121C161AEE7206805
:1049E00002F0E2F82068416D41F00801416520685D
:1049F000416D21F00401416520682A69416D114330
:104A000011E0206802F00AF92068416D41F400616C
:104A100041652068416D21F4806141652068296904
:104A2000426D42EA0121416588E710B5040003D0D8
:104A300094F83D0010B107E0012010BD002084F87B
:104A40003C00204600F022F8022084F83D00206857
:104A5000211D01F0DDFE012084F8480084F83E00AD
:104A600084F83F0084F8400084F8410084F8420054
:104A700084F8430084F8440084F8450084F8460034
:104A800084F8470084F83D00002010BD704770474F
:104A90007047704730B590F88410012918D0012272
:104AA00080F884202421C0F8881000222024016886
:104AB0000B680D6823F0005325F001050D60426678
:104AC00001680B60C0F8884080F88420104630BD33
:104AD000022030BD7047704770B5044690F88400DE
:104AE00001281DD0012284F884202420C4F88800E5
:104AF00020680568026822F001020260206882686E
:104B000022F060620A438260204602F0EBF82268DD
:104B1000202100201560C4F8881084F8840070BD3E
:104B2000022070BD70B5044690F8840001281DD0A5
:104B3000012284F884202420C4F8880020680568B5
:104B4000026822F0010202602068826822F060425E
:104B50000A438260204602F0C5F822682021002026
:104B60001560C4F8881084F8840070BD022070BD00
:104B70007047704770B501680446D0F8880010256A
:104B8000D4F88C608968090618D5212816D12068C8
:104B9000083050E8001F21F0800140E80012002A90
:104BA000F5D1E06F38B1FCF7AFF820B1E06FFCF75A
:104BB0009DFB202823D0204602F040FA2068806820
:104BC00040061AD5222E18D12068083050E8001F60
:104BD00021F0400140E80012002AF5D1D4F880000D
:104BE00040B1FCF791F828B1D4F88000FCF77EFBC7
:104BF000202804D0204602F0F7F9002070BDC4F848
:104C00009050032070BD70472DE9F04107680025E2
:104C1000044640F60F030226F8693968BA6818425C
:104C20000AD183067ED501F0200302F0805C53EAAE
:104C30000C0377D0616F74E1CF4BDFF840C31340B2
:104C400001EA0C0C53EA0C0C6CD05FEAC07C0CD06F
:104C50005FEAC15C09D54FF0010CC7F820C0D4F859
:104C6000907047F00107C4F89070870709D5D707FF
:104C700007D027683E62D4F8906046F00406C4F876
:104C8000906046070AD5D60708D0276804263E62FA
:104C9000D4F8906046F00206C4F8906006070CD580
:104CA00001F020061E4308D0266808233362D4F89A
:104CB000903043F00803C4F8903003050BD54B0146
:104CC00009D526684FF400633362D4F8903043F07E
:104CD0002003C4F89030D4F89030002B3DD08006EB
:104CE00009D501F0200002F08051084303D0616F24
:104CF00009B1204688472168D4F8900089684906A0
:104D000002D410F0280F2AD0204602F06DF9206856
:104D1000806840061ED52068083050E8001F21F04A
:104D2000400100E021E040E80012002AF3D1D4F86D
:104D3000800078B192490165D4F88000FCF794F9BD
:104D400000280AD0D4F88000016D00E02046BDE8BC
:104D5000F04108472046FFF756FFBDE8F0812046A6
:104D6000FFF751FFC4F89050F7E7D4F86CC0202348
:104D7000BCF1010F7ED15FEAC06C7BD55FEAC16CEC
:104D800078D51020386220688068400673D5D4F842
:104D900080107C4A0868904234D07A4A1832904297
:104DA00030D0784A303290422CD0764A4832904205
:104DB00028D0744A6032904224D0724A78329042AD
:104DC00020D0704A903290421CD06E4AA832904255
:104DD00018D06D4A904215D06B4A1832904211D0CB
:104DE000694A303290420DD0674A4832904209D029
:104DF000654A6032904205D0634A7832904201D0D1
:104E0000614A903240680004000CA6D0B4F85C20DF
:104E10008242A2D9A4F85E00C869B0F5807F2FD085
:104E2000216851E8000F20F4807041E80002002A58
:104E3000F6D12068083050E8001F21F0010140E859
:104E40000012002AF5D12068083050E8001F21F038
:104E5000400140E80012002AF5D1C4F88C30E56624
:104E6000216851E8000F20F0100041E80002002AFC
:104E7000F6D101E040E00BE0D4F88000FBF744FFFE
:104E80002667B4F85C00B4F85E10401A81B22FE0D7
:104E9000B4F85C00B4F85E10B4F85E20401A81B239
:104EA000002AB2D00029B0D0226852E8000F20F4C6
:104EB000907042E80007002FF6D1344F206800F1CF
:104EC000080050E8002F02EA070240E8002CBCF17D
:104ED000000FF3D1C4F88C30E5666567206850E8B0
:104EE000002F22F0100240E80023002BF6D12667A5
:104EF0002046FFF7EFFD30E7C60209D5560207D579
:104F00004FF4801038622046BDE8F041FFF731BE13
:104F100006060AD501F0800602F40002164304D00A
:104F2000A16F00297FF412AF17E7420611D54A0698
:104F30000FD52046026852E8001F21F0400142E8E8
:104F40000014002CF6D1C0F88830856700F018FBFB
:104F500003E7020206D54A0004D52046BDE8F04129
:104F6000FFF706BEC001C6D50029C4DA2046BDE859
:104F7000F041FFF7B0BD0000010000102001000467
:104F80009B6E00081000024010040240FEFFFFEF7D
:104F900010B5040003D0D4F8880010B107E0012058
:104FA00010BD002084F88400204600F027F824205B
:104FB000C4F888002068016821F001010160A06A3E
:104FC00010B1204601F0B0FE204602F0B7FA0128E9
:104FD000E6D02068416821F49041416020688168F2
:104FE00021F02A0181602068016841F0010101601F
:104FF0002046BDE8104001F0FBBE00002DE9F04F57
:10500000B5B0044614212EA8FBF7B4F9B8216846C0
:10501000FBF7B0F9DB4A0226D94D002120684FF09A
:105020004009DFF85C83083D1715904266D10022E5
:105030008A46022368461D91CDE90032FDF790FCB7
:1050400008B1FBF75EFED8F8001041F40021C8F863
:105050000010D8F8000000F400203390286840F0D9
:105060000100286028682EAA0621D04600F0010021
:1050700033904FF4C05082E84101CDE93161C2481C
:105080002EA9FCF7E7FFC14D3F21C14885E8030188
:10509000C5E90387C5F814802846C5F81880C5F807
:1050A0001C80C5F82080C5F82480FCF795FC08B169
:1050B000FBF727FEB54EB64A7836C4F88050183252
:1050C000AC633046C6E90029C6E90298C6E904780F
:1050D000C6F81880C6F81C80C6F82080C6F8248060
:1050E000FCF77AFC08B1FBF70CFE0022E6673420DF
:1050F0001146B463FDF782FA34206AE0A54A4FF402
:10510000807B4FF0070A904268D100201E91012257
:105110008846CDE900206846FDF722FC08B1FBF780
:10512000F0FD97480830016841F010010160006807
:1051300000F010003390286840F0010028602868D3
:105140004FF4C061CDE92E1600F001004546CDE9CF
:1051500030862EA9CDE932A08B48FCF77BFF8B4E21
:1051600029228B49F0363039304686E82600C6E9D8
:1051700003577561C6E9065B35627562FCF72CFC66
:1051800008B1FBF7BEFDDFF810822A23C4F8806067
:105190004046B4637E4AC0E90357C8F81450183A31
:1051A000C8F81850C8F81C50C8F8205088E80C02FD
:1051B000C8F82450FCF710FC08B1FBF7A2FD002250
:1051C000C4F87C8025201146C8F83840FDF716FA4F
:1051D0002520FDF705FA35B0BDE8F08F6F4A904203
:1051E00065D10023684602221D93CDE90023FDF717
:1051F000B7FB08B1FBF785FDD8F8001041F400318A
:10520000C8F80010D8F8000000F400303390286887
:1052100040F00100286028680C21CDE92E1600F02E
:1052200001000025CDE93056CDE932A056482EA91F
:10523000FCF710FF584E2B22554978363031304656
:1052400086E82600C6E903577561C6E9065B356244
:105250007562FCF7C1FB08B1FBF753FDDFF838813D
:105260002C23C4F8806008F1F008B4634046484A33
:105270004832C0E90357C8F81450C8F81850C8F8A5
:105280001C50C8F8205088E80C02C8F82450FCF7DD
:10529000A3FB08B1FBF735FD0022C4F87C80262073
:1052A0001146C8F83840FDF7A9F9262091E73C4A95
:1052B000904290D100201D900222CDE90020684646
:1052C000FDF74EFB08B1FBF71CFDD8F8001041F4C8
:1052D0008021C8F80010D8F8000000F48020339036
:1052E000286840F00200286028684FF44061CDE94A
:1052F0002E1600F002000025CDE93056CDE932A08F
:1053000028482EA9FCF7A6FE274E2D22204930461C
:10531000603186E82600C6E903577561C6E9065B79
:1053200035627562FCF758FB08B1FBF7EAFCDFF861
:1053300078802E23C4F8806008F17808B463404672
:10534000134A7832C0E90357C8F81450C8F8185007
:10535000C8F81C50C8F8205088E80C02C8F824503F
:10536000FCF73AFB08B1FBF7CCFC0022C4F87C80C8
:1053700027201146C8F83840FDF740F9272028E7D4
:10538000E8440258004C0040000002582C0300245E
:1053900040000240001001409404002400440040FA
:1053A0000048004000040258FC05002430B4D0F846
:1053B0008C30202B02D0022030BC7047A9B1A2B1A2
:1053C0000B4D00240368C466AB420BD05B681B0224
:1053D00008D5046854E8003F43F0806344E8003592
:1053E000002DF6D130BC02F097BA0120E4E70000AE
:1053F000000C005830B4D0F88C30202B02D00220A2
:1054000030BC7047A9B1A2B10B4D00240368C4663B
:10541000AB420BD05B681B0208D5046854E8003F20
:1054200043F0806344E80035002DF6D130BC02F033
:10543000C7BA0120E4E70000000C0058704770472D
:105440002DE9F8430446D0F88800984616460D46E4
:10545000202802D00220BDE8F883A5B19EB100212A
:10546000C4F890102120C4F888001834FCF706FF17
:10547000814654F8100CA687E6872027183CB0F523
:10548000805F02D003E00120E5E7206910B12E46DD
:10549000002510E000260EE08021204602F018FBD7
:1054A000C0B9DEB116F8010B21688862B4F8560065
:1054B000401EA4F85600B4F856004B464FF00002C8
:1054C000CDF800800028E7D14FF04001204602F0DF
:1054D000FFFA48B1C4F888700320BCE735F8020B26
:1054E0002168C0F30800E0E7C4F888700020B2E744
:1054F00070B50446D0F88800202801D0022070BD85
:1055000039B332B3E06F002321652125A4F854207C
:10551000A4F85620C4F89030C4F88850D8B1154982
:10552000C163E16F14480864E16F1448C864E06F18
:10553000036513462068E56F00F12802216D2846B7
:10554000FCF728FC38B11021C4F890102020C4F8D2
:105550008800012070BD2168402008622068083062
:1055600050E8001F41F0800140E80012002AF5D108
:10557000002070BD9F6F0008DF6F0008AF6E00084D
:1055800070477047FEE7000070B5134C6189A08931
:10559000491E8AB2401E83B20021084600F04CF931
:1055A00001220E48D103FCF763FEA4F688050F2004
:1055B000E8602846FEF716FB6289A089A18842436D
:1055C00089B2284600F06AF80720E8602846BDE85E
:1055D0007040FEF707BB0000C80800200018025802
:1055E00010B5026840F26F335169946944F00804C1
:1055F00094610268946944F010049461026814682C
:1056000024F001041460026814699C431461026868
:10561000936823F44043936090F88120042A0CD0CF
:105620008A060AD5D0F8842042F08002C0F884208F
:105630000268936943F02003936190F88120032A64
:105640000CD04A060AD5D0F8842042F00402C0F8F3
:1056500084200268936943F0400393618A050AD568
:10566000D0F8842042F00102C0F8842002689369D7
:1056700043F400739361C9050AD5D0F8841041F052
:105680000801C0F8841001688A6942F480728A6156
:105690000021A0F86210A0F86A1010BD2DE9FC5F8F
:1056A0008A4690F880100446164600200190012991
:1056B0004FF47A770DD04FF0010884F88080FCF722
:1056C000DDFD814694F881000025012804D00220E8
:1056D00017E00220BDE8FC9F96B1A16803204AEACA
:1056E0000A4B84F88100C4F884506566A4F86850B9
:1056F000A4F86A50B1F5C02F6567256704D008E0AB
:10570000012084F88050E5E72068016841F40061D9
:105710000160206841686FF30F01416020680168F3
:1057200041F0010101606068B0F5800F04D120688C
:10573000016841F4007101602068416989070DD555
:10574000B4F86210012905D9E16B19B1C0F820B095
:10575000B61E17E0A0F820A0761E13E0FCF78EFD21
:10576000A0EB0900B8420DD32046FFF739FFD4F86B
:10577000841084F8805041F48071C4F8841084F857
:10578000818033E0002ED7D100224B464FF4805168
:105790002046009700F02EF828B1D4F8840040F09D
:1057A0002000C4F884002068016841F48061016031
:1057B00000224B464FF400612046009700F01AF893
:1057C00028B1D4F8840040F02000C4F884002046BA
:1057D000FFF706FF2068826942F40062826184F864
:1057E000805084F88180D4F8840008B1012071E7EA
:1057F00001986FE72DE9F041984616460D46074699
:10580000069C09E0FCF73AFDA0EB0800A04202D399
:10581000601C01D00BE054B13868406935EA0000E3
:1058200007D00020B042EDD00020BDE8F081032079
:10583000FBE70120F6E700002DE9F0419846154608
:105840000E4607462A2000F07DF80F4CA07B384416
:1058500080B200F08BF8A07B284480B200F086F87C
:105860002B2000F06FF8E07B304480B200F07EF82F
:10587000E17B01EB080080B200F078F8BDE8F04170
:105880002C2000F05FB80000C80800204FF47841D9
:105890004FF4FC6301EA1021C0F3C40203EA501084
:1058A000014302481143416070470000C8080020CE
:1058B0004FF478414FF4FC6301EA1021C0F3C402B5
:1058C00003EA501001430248114301607047000091
:1058D000C80800202DE9F041194C002514264FF08E
:1058E000F0084FF48C77607298B1022816D0012826
:1058F00019D003280BD1362000F024F85FF0C00047
:1059000000F04CF8A573E673A4F80A80A781BDE8FF
:10591000F081362000F016F8702008E0362000F004
:1059200011F80020ECE7362000F00CF8A02000F081
:1059300035F8A673E5736781A4F80C80E7E70000EB
:10594000C808002001B5074800224FF40041FCF7C9
:105950008FFC054801224FF47A736946FEF76AFA14
:1059600008BD00000018025840000020012238B590
:10597000D10304460748FCF77BFC200A8DF80000A1
:10598000054802224FF47A7369468DF80140FEF70C
:1059900051FA38BD0018025840000020012201B51C
:1059A0000548D103FCF764FC044801224FF47A73E4
:1059B0006946FEF73FFA08BD001802584000002073
:1059C000254808B5016841F0010101600068002226
:1059D000114600F0010000900B20FCF70FFE0B2099
:1059E000FCF7FEFD00220C201146FCF707FE0C2000
:1059F000FCF7F6FD00220D201146FCF7FFFD0D20FF
:105A0000FCF7EEFD00220E201146FCF7F7FD0E20FC
:105A1000FCF7E6FD00220F201146FCF7EFFD0F20FA
:105A2000FCF7DEFD002210201146FCF7E7FD1020F8
:105A3000FCF7D6FD002211201146FCF7DFFD1120F6
:105A4000FCF7CEFD00222F201146FCF7D7FDBDE864
:105A500008402F20FCF7C4BDD84402582DE9F0417E
:105A600086B014216846FAF785FC3548016841F094
:105A700010010160016801F010010591016841F019
:105A800020010160016801F020010591016841F0E9
:105A900080010160016801F080010591016841F019
:105AA00001010160016801F001010591016841F007
:105AB00002010160016801F002010591016841F0F5
:105AC00008010160016801F008010591016841F0D9
:105AD00004010160006800221A4F242100F0040034
